S011000050726F796563746F322E737265638C
S11300000C9434000C9451000C9451000C94510045
S11300100C9451000C9451000C9451000C94510018
S11300200C9451000C9451000C9451000C94510008
S11300300C9451000C9451000C9451000C945100F8
S11300400C9451000C9451000C9451000C945100E8
S11300500C9451000C9451000C9451000C945100D8
S11300600C9451000C94510011241FBECFEFD8E022
S1130070DEBFCDBF14E0A0E0B1E0E0EBF1E102C0EF
S113008005900D92A03AB107D9F724E0A0EAB4E0B4
S113009001C01D92A23FB207E1F70E94A0010C9497
S11300A0D6080C940000ECE7F0E080818064808343
S11300B080818F77808380818F7D8083EAE7F0E081
S11300C0808181608083808182608083808184607C
S11300D0808380818068808308958770ECE7F0E0F6
S11300E09081907F892B8083EAE7F0E080818064AF
S11300F0808380917A0086FDFCCF80917800909176
S1130100790008958AB182608AB98AB18E7F8AB9EA
S11301101092C00088E98093C10086E08093C200F9
S113012087E690E09093C5008093C4000895809181
S1130130C00088231CF48091C600089580E00895CF
S1130140DC0170E00FC09091C0009923E4F7909116
S1130150C6009A3081F09D3071F0FD01E70FF11D6A
S113016090837F5F472F50E0262F30E021503109E4
S11301704217530744F3A70FB11D1C9208959091A1
S1130180C00095FFFCCF8093C6000895CF93DF9302
S1130190EC0103C00E94BF00219688818111FACF2F
S11301A0DF91CF910895CF92DF92EF92FF920F9358
S11301B01F93CF93DF936C017B018A01E901609166
S11301C0AE047091AF048091B0049091B1040E9488
S11301D0FE06C6010E94AE086091AA047091AB04A9
S11301E08091AC049091AD040E94FE06C7010E9468
S11301F0AE086091A6047091A7048091A804909120
S1130200A9040E94FE06C8010E94AE086091A204DF
S11302107091A3048091A4049091A5040E94FE0609
S1130220CE010E94AE08DF91CF911F910F91FF90F4
S1130230EF90DF90CF900895EF92FF920F931F936A
S1130240CF93DF937B018A01E9010E94A808BC01D6
S113025080E090E00E942D076093AE047093AF0499
S11302608093B0049093B104C7010E94A808BC0114
S113027080E090E00E942D076093AA047093AB0481
S11302808093AC049093AD04C8010E94A808BC01FB
S113029080E090E00E942D076093A6047093A70469
S11302A08093A8049093A904CE010E94A808BC01DD
S11302B080E090E00E942D076093A2047093A30451
S11302C08093A4049093A504DF91CF911F910F9183
S11302D0FF90EF900895CF92DF92EF92FF920F93E9
S11302E01F93CF93DF936C017B016AE370E00E945C
S11302F046088C010097C1F0AC014C195D094330EC
S1130300A8F4EA01DD27AE01B601C7010E94510835
S1130310CE0DDF1D1882C80101960E942808F7013E
S11303209483838381E003C080E001C080E0DF9197
S1130330CF911F910F91FF90EF90DF90CF90089590
S1130340CF93DF93CDB7DEB72F970FB6F894DEBF08
S11303500FBECDBF8FEF8AB987E087B90E945300E3
S11303600E9440050E94D7040E9482001092A104BA
S113037080E091E00E94C60083E091E00E94C60004
S113038088E291E00E94C60087E491E00E94C600E2
S113039088B1816088B988B18D7F88B988B18B7F35
S11303A088B9EAE7F0E080818068808366C00E94B3
S11303B097008093A10486E00E946D00BC0180E058
S11303C090E00E942D076093AE047093AF04809375
S11303D0B0049093B1040E94BB058FE19EE40197A1
S11303E0F1F700C0000087E00E946D00BC0180E0CE
S11303F090E00E942D076093AA047093AB0480934D
S1130400AC049093AD040E94ED058FE19EE4019746
S1130410F1F700C0000085E00E946D00BC0180E09F
S113042090E00E942D076093A6047093A704809324
S1130430A8049093A90441E00E94EA048FE19EE499
S11304400197F1F700C0000084E00E946D00BC0138
S113045080E090E00E942D076093A2047093A304AF
S11304608093A4049093A50441E00E9415058FE1B4
S11304709EE40197F1F700C000008091A104882355
S113048009F495CFEAE7F0E080818F77808380914B
S1130490A104813321F0823309F4D1C177C288B138
S11304A08E7F88B988B1826088B988B18B7F88B91A
S11304B01092A10480E091E00E94C60086E691E0DB
S11304C00E94C60081E891E00E94C60004C00E9418
S11304D097008093A1048091A1048823C1F3813300
S11304E021F0823309F47BC041CF80E091E00E9487
S11304F0C60086EA91E00E94C6008CEC91E00E945E
S1130500C60080EE91E00E94C60084EF91E00E9454
S1130510C6008FE092E00E94C6001092A10404C0BD
S11305200E9497008093A1048091A1048823C1F3C1
S11305308233E1F018F4813331F018CF833349F179
S11305408433D1F113CF26E030E044E050E062E0A0
S113055070E080E090E00E94D30080E091E00E948F
S1130560C6008DE292E00E94C60000CF2EE030E08B
S11305704CE050E06AE070E088E090E00E94D30034
S113058080E091E00E94C60084E492E00E94C600EC
S1130590EDCE26E130E044E150E062E170E080E13C
S11305A090E00E94D30080E091E00E94C6008BE5B9
S11305B092E00E94C600DACE2EE130E04CE150E039
S11305C06AE170E088E190E00E94D30080E091E06D
S11305D00E94C60089E792E00E94C600C7CE80E070
S11305E091E00E94C6008AE992E00E94C6008CEC69
S11305F091E00E94C60080EE91E00E94C6008FEB5D
S113060092E00E94C6001092A10404C00E949700C8
S11306108093A1048091A1048823C1F38233C1F0A3
S1130620833349F1813309F0D0C026E030E044E05F
S113063050E062E070E080E090E00E941C0180E005
S113064091E00E94C6008BED92E00E94C600BDC0FE
S11306502EE030E04CE050E06AE070E088E090E0AA
S11306600E941C0180E091E00E94C60081EF92E0AC
S11306700E94C600AAC026E130E044E150E062E1F5
S113068070E080E190E00E941C016091A2047091EE
S1130690A3048091A4049091A50441E00E9415054F
S11306A06091AE047091AF048091B0049091B10454
S11306B00E94BB056091AA047091AB048091AC04C4
S11306C09091AD040E94ED0541E060E070E08FEA96
S11306D093E40E94EA0480E091E00E94C60087E06F
S11306E093E00E94C6001092A10404C00E949700E7
S11306F08093A1048091A1048823C1F341E060E0C8
S113070070E08AE794E40E94EA049FEF23ED80E31B
S1130710915020408040E1F700C000002EE130E01D
S11307204CE150E06AE170E088E190E00E941C0135
S11307306091A2047091A3048091A4049091A504F3
S113074041E00E9415056091AE047091AF04809160
S1130750B0049091B1040E94BB056091AA04709109
S1130760AB048091AC049091AD040E94ED059FEF21
S113077023ED80E3915020408040E1F700C0000069
S113078041E060E070E08FEA93E40E94EA0480E0D4
S113079091E00E94C60089E393E00E94C60080E5D0
S11307A093E00E94C60083E893E00E94C600109282
S11307B0A10404C00E9497008093A1048091A10425
S11307C08823C1F3813309F456CF6091AE0470914C
S11307D0AF048091B0049091B1040E94BB05609174
S11307E0AA047091AB048091AC049091AD040E9472
S11307F0ED056091A6047091A7048091A8049091DE
S1130800A90441E00E94EA046091A2047091A30447
S11308108091A4049091A50441E00E94150583EC05
S113082093E00E94C6001092A10404C00E949700A5
S11308308093A1048091A1048823C1F397CD88B14A
S11308408E7F88B988B18D7F88B988B1846088B972
S113085088EF93E00E94C6008FE094E00E94C600F7
S11308601092A0048DC060E282EB94E00E94A0008C
S1130870BE01655F7F4F82EB94E00E946B01882389
S113088009F45BC08FE294E00E94C600CE010B968F
S11308900E94C60084E394E00E94C6004AE050E04F
S11308A0BE016F5F7F4F8E859F850E946008CE01D9
S11308B001960E94C6008AE00E94BF008C858233A4
S11308C0A1F018F4813331F033C08333C9F0843399
S11308D019F12EC06E857F85072E000C880B990BAD
S11308E00E942F070E94BB054BC06E857F85072E93
S11308F0000C880B990B0E942F070E94ED0540C045
S11309006E857F85072E000C880B990B0E942F079C
S113091041E00E94EA0434C06E857F85072E000CF6
S1130920880B990B0E942F0741E00E94150528C0EF
S11309308DE394E00E94C60023C01092A10480E0DD
S113094091E00E94C60086E594E00E94C60086E716
S113095094E00E94C60080E894E00E94C60004C0AF
S11309600E9497008093A1048091A1048823C1F37D
S1130970813321F481E08093A00402C01092A0048A
S11309808091A004882309F46ECFF0CC80E091E03C
S11309900E94C60083E091E00E94C60088E291E0D4
S11309A00E94C60087E491E00E94C600DFCC85B5B2
S11309B0877F85BD84B5826084BD84B5816084BD34
S11309C085B5846085BD85B58D7F85BD85B5816020
S11309D085BD0895413039F424B5206824BD24B57B
S11309E02F7B24BD06C024B5206824BD24B5206413
S11309F024BD20E030E048EC52E40E94BB0720E034
S1130A0030EC4FE754E40E948C0620E030E04CE0E8
S1130A1052E40E94BB0720E030E048EC52E40E941C
S1130A208C060E94FE0667BD0895413039F424B552
S1130A30206224BD24B52F7E24BD06C024B52062C7
S1130A4024BD24B5206124BD20E030E048EC52E40C
S1130A500E94BB0720E030EC4FE754E40E948C0670
S1130A6020E030E04CE052E40E94BB0720E030E09C
S1130A7048EC52E40E948C060E94FE0668BD08956C
S1130A8084B1866084B910928500109284008FE34B
S1130A909CE99093870080938600E0E8F0E080EA88
S1130AA08083808182608083E1E8F0E088E1808354
S1130AB080818260808308954F925F926F927F92CB
S1130AC0AF92BF92CF92DF92EF92FF920F931F9358
S1130AD0CF93DF93CDB7DEB728970FB6F894DEBF78
S1130AE00FBECDBF29013A01ED82FE820F83188724
S1130AF00E941F0669837A838B839C83A6019501D8
S1130B00698D7A8D8B8D9C8D0E941F069B01AC0193
S1130B1069817A818B819C810E94BB0769837A8376
S1130B208B839C83A3019201C801B7010E941F0615
S1130B309B01AC0169817A818B819C810E948C0626
S1130B409B01AC01C601B5010E94200628960FB690
S1130B50F894DEBF0FBECDBFDF91CF911F910F91EF
S1130B60FF90EF90DF90CF90BF90AF907F906F9009
S1130B705F904F900895AF92BF92CF92DF92EF9221
S1130B80FF920F931F9325E42F9326E92F931F922F
S1130B901F920F2EA12CB12CFAE7CF2EF4E4DF2EF6
S1130BA0F02DE12CF12C00E814E420E030E0A90160
S1130BB00E945C050F900F900F900F900E94FE060C
S1130BC070938900609388001F910F91FF90EF90BC
S1130BD0DF90CF90BF90AF900895AF92BF92CF9225
S1130BE0DF92EF92FF920F931F9325E42F9326E950
S1130BF02F931F921F920F2EA12CB12CFAE7CF2E08
S1130C00F4E4DF2EF02DE12CF12C00E814E420E0D4
S1130C1030E0A9010E945C050F900F900F900F9097
S1130C200E94FE0670938B0060938A001F910F91BF
S1130C30FF90EF90DF90CF90BF90AF900895505801
S1130C40BB27AA270E9437060C9481070E947307CA
S1130C5038F00E947A0720F039F49F3F19F426F403
S1130C600C9470070EF4E095E7FB0C946A07E92FE7
S1130C700E94920758F3BA1762077307840795070F
S1130C8020F079F4A6F50C94B4070EF4E0950B2E3D
S1130C90BA2FA02D0B01B90190010C01CA01A001CA
S1130CA01124FF27591B99F0593F50F4503E68F125
S1130CB01A16F040A22F232F342F4427585FF3CF66
S1130CC0469537952795A795F0405395C9F77EF437
S1130CD01F16BA0B620B730B840BBAF09150A1F080
S1130CE0FF0FBB1F661F771F881FC2F70EC0BA0F06
S1130CF0621F731F841F48F4879577956795B7958E
S1130D00F7959E3F08F0B0CF9395880F08F0992788
S1130D10EE0F9795879508950E94A0060C9481077D
S1130D200E947A0758F00E94730740F029F45F3F4D
S1130D3029F00C946A0751110C94B5070C947007B0
S1130D400E94920768F39923B1F3552391F3951BFD
S1130D50550BBB27AA2762177307840738F09F5FD8
S1130D605F4F220F331F441FAA1FA9F335D00E2E45
S1130D703AF0E0E832D091505040E695001CCAF7B2
S1130D802BD0FE2F29D0660F771F881FBB1F261775
S1130D9037074807AB07B0E809F0BB0B802DBF014C
S1130DA0FF2793585F4F3AF09E3F510578F00C941B
S1130DB06A070C94B5075F3FE4F3983ED4F3869535
S1130DC077956795B795F7959F5FC9F7880F911D3C
S1130DD09695879597F90895E1E0660F771F881F28
S1130DE0BB1F621773078407BA0720F0621B730BDB
S1130DF0840BBA0BEE1F88F7E09508950E949A07BA
S1130E0088F09F5798F0B92F9927B751B0F0E1F0C7
S1130E10660F771F881F991F1AF0BA95C9F714C077
S1130E20B13091F00E94B407B1E008950C94B40776
S1130E30672F782F8827B85F39F0B93FCCF38695B0
S1130E4077956795B395D9F73EF49095809570950D
S1130E5061957F4F8F4F9F4F0895E89409C097FB8A
S1130E603EF490958095709561957F4F8F4F9F4F7D
S1130E709923A9F0F92F96E9BB279395F6958795C1
S1130E8077956795B795F111F8CFFAF4BB0F11F484
S1130E9060FF1BC06F5F7F4F8F4F9F4F16C088232B
S1130EA011F096E911C0772321F09EE8872F762F61
S1130EB005C0662371F096E8862F70E060E02AF0A2
S1130EC09A95660F771F881FDAF7880F969587958E
S1130ED097F9089597F99F6780E870E060E00895B6
S1130EE09FEF80EC089500240A941616170618063E
S1130EF00906089500240A9412161306140605061A
S1130F000895092E0394000C11F4882352F0BB0FAA
S1130F1040F4BF2B11F460FF04C06F5F7F4F8F4F0D
S1130F209F4F089557FD9058440F551F59F05F3F48
S1130F3071F04795880F97FB991F61F09F3F79F0F7
S1130F4087950895121613061406551FF2CF469579
S1130F50F1DF08C0161617061806991FF1CF8695FB
S1130F607105610508940895E894BB2766277727DF
S1130F70CB0197F908950E94CE070C9481070E9433
S1130F80730738F00E947A0720F0952311F00C942F
S1130F906A070C94700711240C94B5070E949207F9
S1130FA070F3959FC1F3950F50E0551F629FF001B8
S1130FB0729FBB27F00DB11D639FAA27F00DB11DD1
S1130FC0AA1F649F6627B00DA11D661F829F22275A
S1130FD0B00DA11D621F739FB00DA11D621F839FE1
S1130FE0A00D611D221F749F3327A00D611D231FB7
S1130FF0849F600D211D822F762F6A2F11249F5705
S113100050409AF0F1F088234AF0EE0FFF1FBB1F07
S1131010661F771F881F91505040A9F79E3F5105C6
S113102080F00C946A070C94B5075F3FE4F3983E94
S1131030D4F3869577956795B795F795E7959F5F70
S1131040C1F7FE2B880F911D9695879597F9089502
S1131050FC0188279927E89421912032E9F329306B
S113106010F02E30C8F32B3241F02D3239F468944D
S113107004C00E947608820F911D219120532A30CA
S1131080C0F31EF4909581959F4F0895FC018191C2
S1131090861721F08823D9F7992708953197CF012E
S11310A00895FB01DC014150504048F001900D923D
S11310B00020C9F701C01D9241505040E0F7089547
S11310C04532510520F4423010F00C946B08FB01BA
S11310D01082CB010895BB274A3031F4992322F4BE
S11310E0BDE2909581959F4F0C947F087AE0979F7D
S11310F0902D879F802D910D11240895BB27FB010E
S11311005527AA27880F991FAA1FA41710F0A41BFC
S113111083955051B9F7A05DAA3308F0A95DA19356
S1131120009779F7B111B1931192CB010C949808FF
S1131130DC01FC01672F71917723E1F7329704C03A
S11311407C916D9370836291AE17BF07C8F30895C5
S1131150A8E1B0E042E050E00C94B6080196272FD5
S11311600E94C5080C94C408DC01CB01FC01F99968
S1131170FECF06C0F2BDE1BDF89A319600B40D92DF
S113118041505040B8F70895262FF999FECF92BDEB
S113119081BDF89A019700B4021639F01FBA20BD38
S11311A00FB6F894FA9AF99A0FBE0895F894FFCFFF
S11311B00D0A00557374656420736520656E63754C
S11311C0656E74726120656E206D6F646F206D6151
S11311D06E75616C200A0D002D204D6F646F2045E3
S11311E04550524F4D202850726573696F6E61727D
S11311F0203129200A0D002D204D6F646F204F6E81
S11312006C696E65202850726573696F6E61722017
S11312103229200A0D002D20477561726461722005
S1131220706F736963696F6E2028312920200A0D5D
S1131230002D2043617267617220706F7369636966
S11312406F6E206F2073656375656E636961202816
S11312503229200A0D002D2053656C656363696F84
S11312606E652071756520706F736963696F6E2098
S11312706775617264617220200A0D002D20506F21
S1131280736963696F6E203120283129200A0D00AB
S11312902D20506F736963696F6E203220283229C4
S11312A0200A0D002D20506F736963696F6E2064EE
S11312B06520636172676120283329200A0D002D9F
S11312C020506F736963696F6E2064652064657371
S11312D0636172676120283429200A0D00506F73FE
S11312E06963696F6E20312067756172646164613E
S11312F0200A0D00506F736963696F6E2032206796
S113130075617264616461200A0D00506F736963D2
S1131310696F6E206465206361726761206775611F
S11313207264616461200A0D00506F736963696FB0
S11313306E206465206465736361726761206775FC
S1131340617264616461200A0D002D2053656C652F
S11313506363696F6E652071756520706F7369636F
S1131360696F6E2063617267617220200A0D002D1F
S113137020456A6563757461722073656375656E73
S113138063696120283329200A0D00506F73696353
S1131390696F6E20312063617267616461200A0D98
S11313A000506F736963696F6E20322063617267E6
S11313B0616461200A0D00506F736963696F6E6523
S11313C020656C206F626A65746F207920656E7683
S11313D06965206375616C717569657220636172FA
S11313E06163746572200A0D0053656375656E63ED
S11313F0696120656A65637574616461200A0D0022
S11314002D5061726120766F6C7665722061206563
S11314106A656375746172206C61207365637565B8
S11314206E6369612070726573696F6E6520312027
S11314300A0D002D5061726120766F6C7665722002
S1131440616C206D6F646F206D616E75616C2070CE
S1131450726573696F6E65206375616C717569651A
S113146072206F74726F206361726163746572209D
S11314700A0D00456E766965206375616C71756946
S11314806572207465636C6120706172612072659D
S113149067726573617220616C206D6F646F206D7B
S11314A0616E75616C0A0D004D6F646F206F6E6C18
S11314B0696E6520616374697661646F0A0D004129
S11314C0686F7261207075656465206D6F766572F2
S11314D0206C6F7320736C69646572730A0D004924
S11314E0443A20000A56616C6F723A20004D6F64D2
S11314F06F206F6E6C696E652064657361637469D7
S11315007661646F0A0044657365612073616C6978
S1131510722064656C206D6F646F206F6E6C696EF1
S1131520653F200A0D00536920283129200A0D0047
S11315304E6F20284375616C7175696572206F74F4
S1131540726F20636172616374657229200A0D00F1
S9030000FC
